{
  "contractName": "Swap",
  "abi": [
    {
      "inputs": [
        {
          "internalType": "contract ISwapRouter",
          "name": "_swapRouter",
          "type": "address"
        }
      ],
      "stateMutability": "nonpayable",
      "type": "constructor"
    },
    {
      "inputs": [],
      "name": "poolFee",
      "outputs": [
        {
          "internalType": "uint24",
          "name": "",
          "type": "uint24"
        }
      ],
      "stateMutability": "view",
      "type": "function"
    },
    {
      "inputs": [],
      "name": "swapRouter",
      "outputs": [
        {
          "internalType": "contract ISwapRouter",
          "name": "",
          "type": "address"
        }
      ],
      "stateMutability": "view",
      "type": "function"
    },
    {
      "stateMutability": "payable",
      "type": "receive"
    },
    {
      "inputs": [
        {
          "internalType": "address",
          "name": "_tokenIn",
          "type": "address"
        },
        {
          "internalType": "address",
          "name": "_tokenOut",
          "type": "address"
        },
        {
          "internalType": "uint256",
          "name": "amountIn",
          "type": "uint256"
        }
      ],
      "name": "swap",
      "outputs": [
        {
          "internalType": "uint256",
          "name": "amountOut",
          "type": "uint256"
        }
      ],
      "stateMutability": "nonpayable",
      "type": "function"
    }
  ],
  "bytecode": "0x60a060405234801561001057600080fd5b5060405161073138038061073183398101604081905261002f91610040565b600160a060020a0316608052610070565b60006020828403121561005257600080fd5b8151600160a060020a038116811461006957600080fd5b9392505050565b6080516106996100986000396000818160a10152818161012a015261021a01526106996000f3fe608060405260043610610054577c01000000000000000000000000000000000000000000000000000000006000350463089fe6aa8114610060578063c31c9c071461008f578063df791e50146100e857600080fd5b3661005b57005b600080fd5b34801561006c57600080fd5b50610076610bb881565b60405162ffffff90911681526020015b60405180910390f35b34801561009b57600080fd5b506100c37f000000000000000000000000000000000000000000000000000000000000000081565b60405173ffffffffffffffffffffffffffffffffffffffff9091168152602001610086565b3480156100f457600080fd5b506101086101033660046105aa565b610116565b604051908152602001610086565b600061012484333085610293565b61014f847f000000000000000000000000000000000000000000000000000000000000000084610411565b604080516101008101825273ffffffffffffffffffffffffffffffffffffffff868116825285811660208301908152610bb88385019081523360608501908152426080860190815260a08601898152600060c0880181815260e0890191825298517f414bf389000000000000000000000000000000000000000000000000000000008152885188166004820152955187166024870152935162ffffff1660448601529151851660648501525160848401525160a4830152935160c48201529251811660e484015290917f00000000000000000000000000000000000000000000000000000000000000009091169063414bf38990610104016020604051808303816000875af1158015610266573d6000803e3d6000fd5b505050506040513d601f19601f8201168201806040525081019061028a91906105e6565b95945050505050565b6040805173ffffffffffffffffffffffffffffffffffffffff85811660248301528481166044830152606480830185905283518084039091018152608490920183526020820180517bffffffffffffffffffffffffffffffffffffffffffffffffffffffff167f23b872dd00000000000000000000000000000000000000000000000000000000179052915160009283929088169161033291906105ff565b6000604051808303816000865af19150503d806000811461036f576040519150601f19603f3d011682016040523d82523d6000602084013e610374565b606091505b509150915081801561039e57508051158061039e57508080602001905181019061039e919061063a565b610409576040517f08c379a000000000000000000000000000000000000000000000000000000000815260206004820152600360248201527f535446000000000000000000000000000000000000000000000000000000000060448201526064015b60405180910390fd5b505050505050565b6040805173ffffffffffffffffffffffffffffffffffffffff8481166024830152604480830185905283518084039091018152606490920183526020820180517bffffffffffffffffffffffffffffffffffffffffffffffffffffffff167f095ea7b30000000000000000000000000000000000000000000000000000000017905291516000928392908716916104a891906105ff565b6000604051808303816000865af19150503d80600081146104e5576040519150601f19603f3d011682016040523d82523d6000602084013e6104ea565b606091505b5091509150818015610514575080511580610514575080806020019051810190610514919061063a565b61057a576040517f08c379a000000000000000000000000000000000000000000000000000000000815260206004820152600260248201527f53410000000000000000000000000000000000000000000000000000000000006044820152606401610400565b5050505050565b803573ffffffffffffffffffffffffffffffffffffffff811681146105a557600080fd5b919050565b6000806000606084860312156105bf57600080fd5b6105c884610581565b92506105d660208501610581565b9150604084013590509250925092565b6000602082840312156105f857600080fd5b5051919050565b6000825160005b818110156106205760208186018101518583015201610606565b8181111561062f576000828501525b509190910192915050565b60006020828403121561064c57600080fd5b8151801515811461065c57600080fd5b939250505056fea2646970667358221220d19de0eda5756f22c286b41c633399f9c11fbbef0efd94a7dafdbbb084a0223464736f6c634300080a0033",
  "immutableReferences": {
    "371": [
      {
        "length": 32,
        "start": 161
      },
      {
        "length": 32,
        "start": 298
      },
      {
        "length": 32,
        "start": 538
      }
    ]
  },
  "source": "// SPDX-License-Identifier: MIT\npragma solidity ^0.8.0;\npragma abicoder v2;\n\nimport \"@uniswap/v3-periphery/contracts/interfaces/ISwapRouter.sol\";\nimport \"@uniswap/v3-periphery/contracts/libraries/TransferHelper.sol\";\nimport \"@openzeppelin/contracts/token/ERC20/IERC20.sol\";\n\n\ncontract Swap {\n\n    ISwapRouter public immutable swapRouter;\n\n\n    // For this example, we will set the pool fee to 0.3%.    \n    uint24 public constant poolFee = 3000;\n\n    constructor(ISwapRouter _swapRouter) {        \n        swapRouter = _swapRouter;    \n    }\n\n    function swap(address _tokenIn, address _tokenOut,uint256 amountIn) external returns (uint256 amountOut) {        \n        // msg.sender must approve this contract\n        // Transfer the specified amount of DAI to this contract.        \n        TransferHelper.safeTransferFrom(_tokenIn, msg.sender, address(this), amountIn);\n        // Approve the router to spend tokenIn.        \n        TransferHelper.safeApprove(_tokenIn, address(swapRouter), amountIn);\n        // Naively set amountOutMinimum to 0. In production, use an oracle or other data source to choose a safer value for amountOutMinimum.        \n        // We also set the sqrtPriceLimitx96 to be 0 to ensure we swap our exact input amount.        \n        ISwapRouter.ExactInputSingleParams memory params = ISwapRouter.ExactInputSingleParams({                \n            tokenIn: _tokenIn,                \n            tokenOut: _tokenOut,                \n            fee: poolFee,                \n            recipient: msg.sender,                \n            deadline: block.timestamp,                \n            amountIn: amountIn,                \n            amountOutMinimum: 0,                \n            sqrtPriceLimitX96: 0              \n            });\n        // The call to `exactInputSingle` executes the swap.        \n        amountOut = swapRouter.exactInputSingle(params);    \n    }\n\n    receive() payable external {}\n}",
  "sourcePath": "/home/hussain/projects/swap-api/contracts/Swap.sol",
  "compiler": {
    "name": "solc",
    "version": "0.8.10+commit.fc410830.Emscripten.clang"
  },
  "schemaVersion": "3.4.3",
  "updatedAt": "2022-01-25T09:11:35.253Z",
  "devdoc": {
    "kind": "dev",
    "methods": {},
    "version": 1
  },
  "userdoc": {
    "kind": "user",
    "methods": {},
    "version": 1
  }
}