{
  "contractName": "Swap",
  "abi": [
    {
      "inputs": [
        {
          "internalType": "contract ISwapRouter",
          "name": "_swapRouter",
          "type": "address"
        }
      ],
      "stateMutability": "nonpayable",
      "type": "constructor"
    },
    {
      "inputs": [],
      "name": "poolFee",
      "outputs": [
        {
          "internalType": "uint24",
          "name": "",
          "type": "uint24"
        }
      ],
      "stateMutability": "view",
      "type": "function"
    },
    {
      "inputs": [],
      "name": "swapRouter",
      "outputs": [
        {
          "internalType": "contract ISwapRouter",
          "name": "",
          "type": "address"
        }
      ],
      "stateMutability": "view",
      "type": "function"
    },
    {
      "stateMutability": "payable",
      "type": "receive"
    },
    {
      "inputs": [
        {
          "internalType": "address",
          "name": "_tokenIn",
          "type": "address"
        },
        {
          "internalType": "address",
          "name": "_tokenOut",
          "type": "address"
        },
        {
          "internalType": "uint256",
          "name": "amountIn",
          "type": "uint256"
        }
      ],
      "name": "swap",
      "outputs": [
        {
          "internalType": "uint256",
          "name": "amountOut",
          "type": "uint256"
        }
      ],
      "stateMutability": "nonpayable",
      "type": "function"
    }
  ],
  "bytecode": "0x60a060405234801561001057600080fd5b50604051610adf380380610adf83398181016040528101906100329190610084565b8073ffffffffffffffffffffffffffffffffffffffff1660808173ffffffffffffffffffffffffffffffffffffffff1660601b8152505050610108565b60008151905061007e816100f1565b92915050565b60006020828403121561009657600080fd5b60006100a48482850161006f565b91505092915050565b60006100b8826100d1565b9050919050565b60006100ca826100ad565b9050919050565b600073ffffffffffffffffffffffffffffffffffffffff82169050919050565b6100fa816100bf565b811461010557600080fd5b50565b60805160601c6109b161012e6000398060df528061011552806101db52506109b16000f3fe6080604052600436106100385760003560e01c8063089fe6aa14610044578063c31c9c071461006f578063df791e501461009a5761003f565b3661003f57005b600080fd5b34801561005057600080fd5b506100596100d7565b60405161006691906108a8565b60405180910390f35b34801561007b57600080fd5b506100846100dd565b6040516100919190610871565b60405180910390f35b3480156100a657600080fd5b506100c160048036038101906100bc91906106ee565b610101565b6040516100ce91906108c3565b60405180910390f35b610bb881565b7f000000000000000000000000000000000000000000000000000000000000000081565b600061010f8433308561028e565b61013a847f0000000000000000000000000000000000000000000000000000000000000000846104ae565b60006040518061010001604052808673ffffffffffffffffffffffffffffffffffffffff1681526020018573ffffffffffffffffffffffffffffffffffffffff168152602001610bb862ffffff1681526020013373ffffffffffffffffffffffffffffffffffffffff16815260200142815260200184815260200160008152602001600073ffffffffffffffffffffffffffffffffffffffff1681525090507f000000000000000000000000000000000000000000000000000000000000000073ffffffffffffffffffffffffffffffffffffffff1663414bf389826040518263ffffffff1660e01b8152600401610232919061088c565b602060405180830381600087803b15801561024c57600080fd5b505af1158015610260573d6000803e3d6000fd5b505050506040513d601f19601f82011682018060405250810190610284919061073d565b9150509392505050565b6000808573ffffffffffffffffffffffffffffffffffffffff166323b872dd60e01b868686604051602401808473ffffffffffffffffffffffffffffffffffffffff1681526020018373ffffffffffffffffffffffffffffffffffffffff1681526020018281526020019350505050604051602081830303815290604052907bffffffffffffffffffffffffffffffffffffffffffffffffffffffff19166020820180517bffffffffffffffffffffffffffffffffffffffffffffffffffffffff83818316178352505050506040518082805190602001908083835b6020831061038d578051825260208201915060208101905060208303925061036a565b6001836020036101000a0380198251168184511680821785525050505050509050019150506000604051808303816000865af19150503d80600081146103ef576040519150601f19603f3d011682016040523d82523d6000602084013e6103f4565b606091505b50915091508180156104345750600081511480610433575080806020019051602081101561042157600080fd5b81019080805190602001909291905050505b5b6104a6576040517f08c379a00000000000000000000000000000000000000000000000000000000081526004018080602001828103825260038152602001807f535446000000000000000000000000000000000000000000000000000000000081525060200191505060405180910390fd5b505050505050565b6000808473ffffffffffffffffffffffffffffffffffffffff1663095ea7b360e01b8585604051602401808373ffffffffffffffffffffffffffffffffffffffff16815260200182815260200192505050604051602081830303815290604052907bffffffffffffffffffffffffffffffffffffffffffffffffffffffff19166020820180517bffffffffffffffffffffffffffffffffffffffffffffffffffffffff83818316178352505050506040518082805190602001908083835b6020831061058f578051825260208201915060208101905060208303925061056c565b6001836020036101000a0380198251168184511680821785525050505050509050019150506000604051808303816000865af19150503d80600081146105f1576040519150601f19603f3d011682016040523d82523d6000602084013e6105f6565b606091505b50915091508180156106365750600081511480610635575080806020019051602081101561062357600080fd5b81019080805190602001909291905050505b5b6106a8576040517f08c379a00000000000000000000000000000000000000000000000000000000081526004018080602001828103825260028152602001807f534100000000000000000000000000000000000000000000000000000000000081525060200191505060405180910390fd5b5050505050565b6000813590506106be8161094d565b92915050565b6000813590506106d381610964565b92915050565b6000815190506106e881610964565b92915050565b60008060006060848603121561070357600080fd5b6000610711868287016106af565b9350506020610722868287016106af565b9250506040610733868287016106c4565b9150509250925092565b60006020828403121561074f57600080fd5b600061075d848285016106d9565b91505092915050565b61076f816108de565b82525050565b61077e81610929565b82525050565b6101008201600082015161079b6000850182610766565b5060208201516107ae6020850182610766565b5060408201516107c16040850182610835565b5060608201516107d46060850182610766565b5060808201516107e76080850182610853565b5060a08201516107fa60a0850182610853565b5060c082015161080d60c0850182610853565b5060e082015161082060e0850182610826565b50505050565b61082f816108f0565b82525050565b61083e81610910565b82525050565b61084d81610910565b82525050565b61085c8161091f565b82525050565b61086b8161091f565b82525050565b60006020820190506108866000830184610775565b92915050565b6000610100820190506108a26000830184610784565b92915050565b60006020820190506108bd6000830184610844565b92915050565b60006020820190506108d86000830184610862565b92915050565b60006108e9826108f0565b9050919050565b600073ffffffffffffffffffffffffffffffffffffffff82169050919050565b600062ffffff82169050919050565b6000819050919050565b60006109348261093b565b9050919050565b6000610946826108f0565b9050919050565b610956816108de565b811461096157600080fd5b50565b61096d8161091f565b811461097857600080fd5b5056fea2646970667358221220f1712f21aab5a7eaa8837546add23c9c31567d2550f8363085d9da4318c45db864736f6c63430007060033",
  "immutableReferences": {
    "365": [
      {
        "length": 32,
        "start": 223
      },
      {
        "length": 32,
        "start": 277
      },
      {
        "length": 32,
        "start": 475
      }
    ]
  },
  "source": "// SPDX-License-Identifier: MIT\npragma solidity >=0.7.6;\npragma abicoder v2;\n\nimport \"@uniswap/v3-periphery/contracts/interfaces/ISwapRouter.sol\";\nimport \"@uniswap/v3-periphery/contracts/libraries/TransferHelper.sol\";\n\n\ncontract Swap {\n\n    ISwapRouter public immutable swapRouter;\n\n\n    // For this example, we will set the pool fee to 0.3%.    \n    uint24 public constant poolFee = 3000;\n\n    constructor(ISwapRouter _swapRouter) {        \n        swapRouter = _swapRouter;    \n    }\n\n    function swap(address _tokenIn, address _tokenOut,uint256 amountIn) public returns (uint256 amountOut) {        \n        // msg.sender must approve this contract\n\n        // Transfer the specified amount of _tokenIn to this contract.        \n        TransferHelper.safeTransferFrom(_tokenIn, msg.sender, address(this), amountIn);\n        \n        // Approve the router to spend tokenIn.        \n        TransferHelper.safeApprove(_tokenIn, address(swapRouter), amountIn);\n\n        // Naively set amountOutMinimum to 0. In production, use an oracle or other data source to choose a safer value for amountOutMinimum.        \n        // We also set the sqrtPriceLimitx96 to be 0 to ensure we swap our exact input amount.        \n        ISwapRouter.ExactInputSingleParams memory params = ISwapRouter.ExactInputSingleParams({                \n            tokenIn: _tokenIn,                \n            tokenOut: _tokenOut,                \n            fee: poolFee,                \n            recipient: msg.sender,                \n            deadline: block.timestamp,                \n            amountIn: amountIn,                \n            amountOutMinimum: 0,                \n            sqrtPriceLimitX96: 0              \n            });\n        // The call to `exactInputSingle` executes the swap.        \n        amountOut = swapRouter.exactInputSingle(params);    \n    }\n\n    receive() payable external {}\n}",
  "sourcePath": "/home/hussain/projects/swap-api/contracts/Swap.sol",
  "compiler": {
    "name": "solc",
    "version": "0.7.6+commit.7338295f.Emscripten.clang"
  },
  "schemaVersion": "3.4.3",
  "updatedAt": "2022-01-27T09:18:53.501Z",
  "devdoc": {
    "kind": "dev",
    "methods": {},
    "version": 1
  },
  "userdoc": {
    "kind": "user",
    "methods": {},
    "version": 1
  }
}